{
  "contractName": "Election",
  "abi": [
    {
      "inputs": [],
      "stateMutability": "nonpayable",
      "type": "constructor"
    },
    {
      "anonymous": false,
      "inputs": [
        {
          "indexed": true,
          "internalType": "uint256",
          "name": "_candidateId",
          "type": "uint256"
        }
      ],
      "name": "votedEvent",
      "type": "event"
    },
    {
      "inputs": [
        {
          "internalType": "uint256",
          "name": "",
          "type": "uint256"
        }
      ],
      "name": "candidates",
      "outputs": [
        {
          "internalType": "uint256",
          "name": "id",
          "type": "uint256"
        },
        {
          "internalType": "string",
          "name": "name",
          "type": "string"
        },
        {
          "internalType": "uint256",
          "name": "voteCount",
          "type": "uint256"
        }
      ],
      "stateMutability": "view",
      "type": "function",
      "constant": true
    },
    {
      "inputs": [],
      "name": "candidatesCount",
      "outputs": [
        {
          "internalType": "uint256",
          "name": "",
          "type": "uint256"
        }
      ],
      "stateMutability": "view",
      "type": "function",
      "constant": true
    },
    {
      "inputs": [],
      "name": "owner",
      "outputs": [
        {
          "internalType": "address",
          "name": "",
          "type": "address"
        }
      ],
      "stateMutability": "view",
      "type": "function",
      "constant": true
    },
    {
      "inputs": [
        {
          "internalType": "address",
          "name": "",
          "type": "address"
        }
      ],
      "name": "voters",
      "outputs": [
        {
          "internalType": "bool",
          "name": "",
          "type": "bool"
        }
      ],
      "stateMutability": "view",
      "type": "function",
      "constant": true
    },
    {
      "inputs": [
        {
          "internalType": "string",
          "name": "_name",
          "type": "string"
        }
      ],
      "name": "addCandidate",
      "outputs": [],
      "stateMutability": "nonpayable",
      "type": "function"
    },
    {
      "inputs": [
        {
          "internalType": "uint256",
          "name": "_candidateId",
          "type": "uint256"
        }
      ],
      "name": "vote",
      "outputs": [],
      "stateMutability": "nonpayable",
      "type": "function"
    }
  ],
  "bytecode": "0x608060405234801561001057600080fd5b5033600360006101000a81548173ffffffffffffffffffffffffffffffffffffffff021916908373ffffffffffffffffffffffffffffffffffffffff160217905550610b96806100616000396000f3fe608060405234801561001057600080fd5b50600436106100625760003560e01c80630121b93f146100675780632d35a8a2146100835780633477ee2e146100a1578063462e91ec146100d35780638da5cb5b146100ef578063a3ec138d1461010d575b600080fd5b610081600480360381019061007c919061047d565b61013d565b005b61008b610261565b60405161009891906104b9565b60405180910390f35b6100bb60048036038101906100b6919061047d565b610267565b6040516100ca93929190610564565b60405180910390f35b6100ed60048036038101906100e891906106d7565b610319565b005b6100f76103ed565b6040516101049190610761565b60405180910390f35b610127600480360381019061012291906107a8565b610413565b60405161013491906107f0565b60405180910390f35b600160003373ffffffffffffffffffffffffffffffffffffffff1673ffffffffffffffffffffffffffffffffffffffff16815260200190815260200160002060009054906101000a900460ff161561019457600080fd5b6000811180156101a657506002548111155b6101af57600080fd5b60018060003373ffffffffffffffffffffffffffffffffffffffff1673ffffffffffffffffffffffffffffffffffffffff16815260200190815260200160002060006101000a81548160ff021916908315150217905550600080828152602001908152602001600020600201600081548092919061022c9061083a565b9190505550807ffff3c900d938d21d0990d786e819f29b8d05c1ef587b462b939609625b684b1660405160405180910390a250565b60025481565b6000602052806000526040600020600091509050806000015490806001018054610290906108b1565b80601f01602080910402602001604051908101604052809291908181526020018280546102bc906108b1565b80156103095780601f106102de57610100808354040283529160200191610309565b820191906000526020600020905b8154815290600101906020018083116102ec57829003601f168201915b5050505050908060020154905083565b600360009054906101000a900473ffffffffffffffffffffffffffffffffffffffff1673ffffffffffffffffffffffffffffffffffffffff163373ffffffffffffffffffffffffffffffffffffffff161461037357600080fd5b600260008154809291906103869061083a565b919050555060405180606001604052806002548152602001828152602001600081525060008060025481526020019081526020016000206000820151816000015560208201518160010190816103dc9190610a8e565b506040820151816002015590505050565b600360009054906101000a900473ffffffffffffffffffffffffffffffffffffffff1681565b60016020528060005260406000206000915054906101000a900460ff1681565b6000604051905090565b600080fd5b600080fd5b6000819050919050565b61045a81610447565b811461046557600080fd5b50565b60008135905061047781610451565b92915050565b6000602082840312156104935761049261043d565b5b60006104a184828501610468565b91505092915050565b6104b381610447565b82525050565b60006020820190506104ce60008301846104aa565b92915050565b600081519050919050565b600082825260208201905092915050565b60005b8381101561050e5780820151818401526020810190506104f3565b60008484015250505050565b6000601f19601f8301169050919050565b6000610536826104d4565b61054081856104df565b93506105508185602086016104f0565b6105598161051a565b840191505092915050565b600060608201905061057960008301866104aa565b818103602083015261058b818561052b565b905061059a60408301846104aa565b949350505050565b600080fd5b600080fd5b7f4e487b7100000000000000000000000000000000000000000000000000000000600052604160045260246000fd5b6105e48261051a565b810181811067ffffffffffffffff82111715610603576106026105ac565b5b80604052505050565b6000610616610433565b905061062282826105db565b919050565b600067ffffffffffffffff821115610642576106416105ac565b5b61064b8261051a565b9050602081019050919050565b82818337600083830152505050565b600061067a61067584610627565b61060c565b905082815260208101848484011115610696576106956105a7565b5b6106a1848285610658565b509392505050565b600082601f8301126106be576106bd6105a2565b5b81356106ce848260208601610667565b91505092915050565b6000602082840312156106ed576106ec61043d565b5b600082013567ffffffffffffffff81111561070b5761070a610442565b5b610717848285016106a9565b91505092915050565b600073ffffffffffffffffffffffffffffffffffffffff82169050919050565b600061074b82610720565b9050919050565b61075b81610740565b82525050565b60006020820190506107766000830184610752565b92915050565b61078581610740565b811461079057600080fd5b50565b6000813590506107a28161077c565b92915050565b6000602082840312156107be576107bd61043d565b5b60006107cc84828501610793565b91505092915050565b60008115159050919050565b6107ea816107d5565b82525050565b600060208201905061080560008301846107e1565b92915050565b7f4e487b7100000000000000000000000000000000000000000000000000000000600052601160045260246000fd5b600061084582610447565b91507fffffffffffffffffffffffffffffffffffffffffffffffffffffffffffffffff82036108775761087661080b565b5b600182019050919050565b7f4e487b7100000000000000000000000000000000000000000000000000000000600052602260045260246000fd5b600060028204905060018216806108c957607f821691505b6020821081036108dc576108db610882565b5b50919050565b60008190508160005260206000209050919050565b60006020601f8301049050919050565b600082821b905092915050565b6000600883026109447fffffffffffffffffffffffffffffffffffffffffffffffffffffffffffffffff82610907565b61094e8683610907565b95508019841693508086168417925050509392505050565b6000819050919050565b600061098b61098661098184610447565b610966565b610447565b9050919050565b6000819050919050565b6109a583610970565b6109b96109b182610992565b848454610914565b825550505050565b600090565b6109ce6109c1565b6109d981848461099c565b505050565b5b818110156109fd576109f26000826109c6565b6001810190506109df565b5050565b601f821115610a4257610a13816108e2565b610a1c846108f7565b81016020851015610a2b578190505b610a3f610a37856108f7565b8301826109de565b50505b505050565b600082821c905092915050565b6000610a6560001984600802610a47565b1980831691505092915050565b6000610a7e8383610a54565b9150826002028217905092915050565b610a97826104d4565b67ffffffffffffffff811115610ab057610aaf6105ac565b5b610aba82546108b1565b610ac5828285610a01565b600060209050601f831160018114610af85760008415610ae6578287015190505b610af08582610a72565b865550610b58565b601f198416610b06866108e2565b60005b82811015610b2e57848901518255600182019150602085019450602081019050610b09565b86831015610b4b5784890151610b47601f891682610a54565b8355505b6001600288020188555050505b50505050505056fea2646970667358221220dea69511f876f3774425d6f513c424005c46b9598e8b5a6e89fd3678a1c2d5d664736f6c63430008130033",
  "immutableReferences": {},
  "source": "// SPDX-License-Identifier: MIT\npragma solidity 0.8.19;\n\ncontract Election {\n    // Model a Candidate\n    struct Candidate {\n        uint id;\n        string name;\n        uint voteCount;\n    }\n\n    event votedEvent (\n        uint indexed _candidateId\n    );\n\n    // Read/write candidates\n    mapping(uint => Candidate) public candidates;\n    mapping(address => bool) public voters;\n\n    // Store Candidates Count\n    uint public candidatesCount;\n    address public owner;\n\n    constructor(){\n        owner = msg.sender;\n    }\n\n    function addCandidate (string memory _name) public {\n        require(msg.sender == owner);\n        candidatesCount ++;\n        candidates[candidatesCount] = Candidate(candidatesCount, _name, 0);\n    }\n\n    function vote (uint _candidateId) public {\n        // require that they haven't voted before\n        require(!voters[msg.sender]);\n\n        // require a valid candidate\n        require(_candidateId > 0 && _candidateId <= candidatesCount);\n\n        voters[msg.sender] = true;\n        candidates[_candidateId].voteCount ++;\n        \n        // trigger voted event\n        emit votedEvent(_candidateId);\n    }\n}",
  "sourcePath": "/Users/ritvik/Projects/Blockchain/Vote-System/contracts/Election.sol",
  "compiler": {
    "name": "solc",
    "version": "0.8.19+commit.7dd6d404.Emscripten.clang"
  },
  "schemaVersion": "3.4.16",
  "updatedAt": "2023-11-26T04:07:46.322Z",
  "networkType": "ethereum",
  "devdoc": {
    "kind": "dev",
    "methods": {},
    "version": 1
  },
  "userdoc": {
    "kind": "user",
    "methods": {},
    "version": 1
  }
}