{
  "contractName": "Election",
  "abi": [
    {
      "inputs": [],
      "stateMutability": "nonpayable",
      "type": "constructor"
    },
    {
      "anonymous": false,
      "inputs": [
        {
          "indexed": true,
          "internalType": "uint256",
          "name": "_candidateId",
          "type": "uint256"
        }
      ],
      "name": "votedEvent",
      "type": "event"
    },
    {
      "inputs": [
        {
          "internalType": "uint256",
          "name": "",
          "type": "uint256"
        }
      ],
      "name": "candidates",
      "outputs": [
        {
          "internalType": "uint256",
          "name": "id",
          "type": "uint256"
        },
        {
          "internalType": "string",
          "name": "name",
          "type": "string"
        },
        {
          "internalType": "uint8",
          "name": "age",
          "type": "uint8"
        },
        {
          "internalType": "string",
          "name": "agenda",
          "type": "string"
        },
        {
          "internalType": "string",
          "name": "gender",
          "type": "string"
        },
        {
          "internalType": "uint256",
          "name": "voteCount",
          "type": "uint256"
        }
      ],
      "stateMutability": "view",
      "type": "function",
      "constant": true
    },
    {
      "inputs": [],
      "name": "candidatesCount",
      "outputs": [
        {
          "internalType": "uint256",
          "name": "",
          "type": "uint256"
        }
      ],
      "stateMutability": "view",
      "type": "function",
      "constant": true
    },
    {
      "inputs": [],
      "name": "owner",
      "outputs": [
        {
          "internalType": "address",
          "name": "",
          "type": "address"
        }
      ],
      "stateMutability": "view",
      "type": "function",
      "constant": true
    },
    {
      "inputs": [
        {
          "internalType": "address",
          "name": "",
          "type": "address"
        }
      ],
      "name": "voters",
      "outputs": [
        {
          "internalType": "bool",
          "name": "",
          "type": "bool"
        }
      ],
      "stateMutability": "view",
      "type": "function",
      "constant": true
    },
    {
      "inputs": [
        {
          "internalType": "string",
          "name": "_name",
          "type": "string"
        },
        {
          "internalType": "uint8",
          "name": "_age",
          "type": "uint8"
        },
        {
          "internalType": "string",
          "name": "_gender",
          "type": "string"
        },
        {
          "internalType": "string",
          "name": "_agenda",
          "type": "string"
        }
      ],
      "name": "addCandidate",
      "outputs": [],
      "stateMutability": "nonpayable",
      "type": "function"
    },
    {
      "inputs": [
        {
          "internalType": "uint256",
          "name": "_candidateId",
          "type": "uint256"
        }
      ],
      "name": "vote",
      "outputs": [],
      "stateMutability": "nonpayable",
      "type": "function"
    }
  ],
  "bytecode": "0x608060405234801561001057600080fd5b5033600360006101000a81548173ffffffffffffffffffffffffffffffffffffffff021916908373ffffffffffffffffffffffffffffffffffffffff160217905550610e1f806100616000396000f3fe608060405234801561001057600080fd5b50600436106100625760003560e01c80630121b93f146100675780632593c632146100835780632d35a8a21461009f5780633477ee2e146100bd5780638da5cb5b146100f2578063a3ec138d14610110575b600080fd5b610081600480360381019061007c9190610614565b610140565b005b61009d600480360381019061009891906107c0565b610264565b005b6100a761039d565b6040516100b4919061088a565b60405180910390f35b6100d760048036038101906100d29190610614565b6103a3565b6040516100e996959493929190610933565b60405180910390f35b6100fa610584565b60405161010791906109ea565b60405180910390f35b61012a60048036038101906101259190610a31565b6105aa565b6040516101379190610a79565b60405180910390f35b600160003373ffffffffffffffffffffffffffffffffffffffff1673ffffffffffffffffffffffffffffffffffffffff16815260200190815260200160002060009054906101000a900460ff161561019757600080fd5b6000811180156101a957506002548111155b6101b257600080fd5b60018060003373ffffffffffffffffffffffffffffffffffffffff1673ffffffffffffffffffffffffffffffffffffffff16815260200190815260200160002060006101000a81548160ff021916908315150217905550600080828152602001908152602001600020600501600081548092919061022f90610ac3565b9190505550807ffff3c900d938d21d0990d786e819f29b8d05c1ef587b462b939609625b684b1660405160405180910390a250565b600360009054906101000a900473ffffffffffffffffffffffffffffffffffffffff1673ffffffffffffffffffffffffffffffffffffffff163373ffffffffffffffffffffffffffffffffffffffff16146102be57600080fd5b600260008154809291906102d190610ac3565b91905055506040518060c0016040528060025481526020018581526020018460ff1681526020018281526020018381526020016000815250600080600254815260200190815260200160002060008201518160000155602082015181600101908161033c9190610d17565b5060408201518160020160006101000a81548160ff021916908360ff16021790555060608201518160030190816103739190610d17565b5060808201518160040190816103899190610d17565b5060a0820151816005015590505050505050565b60025481565b60006020528060005260406000206000915090508060000154908060010180546103cc90610b3a565b80601f01602080910402602001604051908101604052809291908181526020018280546103f890610b3a565b80156104455780601f1061041a57610100808354040283529160200191610445565b820191906000526020600020905b81548152906001019060200180831161042857829003601f168201915b5050505050908060020160009054906101000a900460ff169080600301805461046d90610b3a565b80601f016020809104026020016040519081016040528092919081815260200182805461049990610b3a565b80156104e65780601f106104bb576101008083540402835291602001916104e6565b820191906000526020600020905b8154815290600101906020018083116104c957829003601f168201915b5050505050908060040180546104fb90610b3a565b80601f016020809104026020016040519081016040528092919081815260200182805461052790610b3a565b80156105745780601f1061054957610100808354040283529160200191610574565b820191906000526020600020905b81548152906001019060200180831161055757829003601f168201915b5050505050908060050154905086565b600360009054906101000a900473ffffffffffffffffffffffffffffffffffffffff1681565b60016020528060005260406000206000915054906101000a900460ff1681565b6000604051905090565b600080fd5b600080fd5b6000819050919050565b6105f1816105de565b81146105fc57600080fd5b50565b60008135905061060e816105e8565b92915050565b60006020828403121561062a576106296105d4565b5b6000610638848285016105ff565b91505092915050565b600080fd5b600080fd5b6000601f19601f8301169050919050565b7f4e487b7100000000000000000000000000000000000000000000000000000000600052604160045260246000fd5b6106948261064b565b810181811067ffffffffffffffff821117156106b3576106b261065c565b5b80604052505050565b60006106c66105ca565b90506106d2828261068b565b919050565b600067ffffffffffffffff8211156106f2576106f161065c565b5b6106fb8261064b565b9050602081019050919050565b82818337600083830152505050565b600061072a610725846106d7565b6106bc565b90508281526020810184848401111561074657610745610646565b5b610751848285610708565b509392505050565b600082601f83011261076e5761076d610641565b5b813561077e848260208601610717565b91505092915050565b600060ff82169050919050565b61079d81610787565b81146107a857600080fd5b50565b6000813590506107ba81610794565b92915050565b600080600080608085870312156107da576107d96105d4565b5b600085013567ffffffffffffffff8111156107f8576107f76105d9565b5b61080487828801610759565b9450506020610815878288016107ab565b935050604085013567ffffffffffffffff811115610836576108356105d9565b5b61084287828801610759565b925050606085013567ffffffffffffffff811115610863576108626105d9565b5b61086f87828801610759565b91505092959194509250565b610884816105de565b82525050565b600060208201905061089f600083018461087b565b92915050565b600081519050919050565b600082825260208201905092915050565b60005b838110156108df5780820151818401526020810190506108c4565b60008484015250505050565b60006108f6826108a5565b61090081856108b0565b93506109108185602086016108c1565b6109198161064b565b840191505092915050565b61092d81610787565b82525050565b600060c082019050610948600083018961087b565b818103602083015261095a81886108eb565b90506109696040830187610924565b818103606083015261097b81866108eb565b9050818103608083015261098f81856108eb565b905061099e60a083018461087b565b979650505050505050565b600073ffffffffffffffffffffffffffffffffffffffff82169050919050565b60006109d4826109a9565b9050919050565b6109e4816109c9565b82525050565b60006020820190506109ff60008301846109db565b92915050565b610a0e816109c9565b8114610a1957600080fd5b50565b600081359050610a2b81610a05565b92915050565b600060208284031215610a4757610a466105d4565b5b6000610a5584828501610a1c565b91505092915050565b60008115159050919050565b610a7381610a5e565b82525050565b6000602082019050610a8e6000830184610a6a565b92915050565b7f4e487b7100000000000000000000000000000000000000000000000000000000600052601160045260246000fd5b6000610ace826105de565b91507fffffffffffffffffffffffffffffffffffffffffffffffffffffffffffffffff8203610b0057610aff610a94565b5b600182019050919050565b7f4e487b7100000000000000000000000000000000000000000000000000000000600052602260045260246000fd5b60006002820490506001821680610b5257607f821691505b602082108103610b6557610b64610b0b565b5b50919050565b60008190508160005260206000209050919050565b60006020601f8301049050919050565b600082821b905092915050565b600060088302610bcd7fffffffffffffffffffffffffffffffffffffffffffffffffffffffffffffffff82610b90565b610bd78683610b90565b95508019841693508086168417925050509392505050565b6000819050919050565b6000610c14610c0f610c0a846105de565b610bef565b6105de565b9050919050565b6000819050919050565b610c2e83610bf9565b610c42610c3a82610c1b565b848454610b9d565b825550505050565b600090565b610c57610c4a565b610c62818484610c25565b505050565b5b81811015610c8657610c7b600082610c4f565b600181019050610c68565b5050565b601f821115610ccb57610c9c81610b6b565b610ca584610b80565b81016020851015610cb4578190505b610cc8610cc085610b80565b830182610c67565b50505b505050565b600082821c905092915050565b6000610cee60001984600802610cd0565b1980831691505092915050565b6000610d078383610cdd565b9150826002028217905092915050565b610d20826108a5565b67ffffffffffffffff811115610d3957610d3861065c565b5b610d438254610b3a565b610d4e828285610c8a565b600060209050601f831160018114610d815760008415610d6f578287015190505b610d798582610cfb565b865550610de1565b601f198416610d8f86610b6b565b60005b82811015610db757848901518255600182019150602085019450602081019050610d92565b86831015610dd45784890151610dd0601f891682610cdd565b8355505b6001600288020188555050505b50505050505056fea26469706673582212203b485a7ec72f91445cb07a5de96ae9c92e41f833013a61a501b5f719d07fdf5264736f6c63430008130033",
  "immutableReferences": {},
  "source": "// SPDX-License-Identifier: MIT\npragma solidity 0.8.19;\n\ncontract Election {\n    // Model a Candidate\n    struct Candidate {\n        uint id;\n        string name;\n        uint8 age;\n        string agenda;\n        string gender;\n        uint voteCount;\n    }\n\n    event votedEvent (\n        uint indexed _candidateId\n    );\n\n    // Read/write candidates\n    mapping(uint => Candidate) public candidates;\n    mapping(address => bool) public voters;\n\n    // Store Candidates Count\n    uint public candidatesCount;\n    address public owner;\n\n    constructor(){\n        owner = msg.sender;\n    }\n\n    function addCandidate (string memory _name, uint8 _age, string memory _gender, string memory _agenda) public {\n        require(msg.sender == owner);\n        candidatesCount ++;\n        \n        candidates[candidatesCount] = Candidate({\n            id: candidatesCount,\n            name: _name,\n            age: _age,\n            gender: _gender,\n            agenda: _agenda,\n            voteCount: 0\n        });\n    }\n\n    function vote (uint _candidateId) public {\n        // require that they haven't voted before\n        require(!voters[msg.sender]);\n\n        // require a valid candidate\n        require(_candidateId > 0 && _candidateId <= candidatesCount);\n\n        voters[msg.sender] = true;\n        candidates[_candidateId].voteCount ++;\n        \n        // trigger voted event\n        emit votedEvent(_candidateId);\n    }\n}",
  "sourcePath": "/Users/ritvik/Projects/Blockchain/Vote-System/contracts/Election.sol",
  "compiler": {
    "name": "solc",
    "version": "0.8.19+commit.7dd6d404.Emscripten.clang"
  },
  "schemaVersion": "3.4.16",
  "updatedAt": "2023-11-26T09:09:22.554Z",
  "networkType": "ethereum",
  "devdoc": {
    "kind": "dev",
    "methods": {},
    "version": 1
  },
  "userdoc": {
    "kind": "user",
    "methods": {},
    "version": 1
  }
}